{"abi":[{"type":"function","name":"ARBITER_WAITTIME","inputs":[],"outputs":[{"name":"","type":"uint256","internalType":"uint256"}],"stateMutability":"view"},{"type":"function","name":"Paymastercheck","inputs":[{"name":"","type":"address","internalType":"address"},{"name":"","type":"uint256","internalType":"uint256"}],"outputs":[{"name":"","type":"uint256","internalType":"uint256"}],"stateMutability":"view"},{"type":"function","name":"RESOLUTION_DEADLINE","inputs":[],"outputs":[{"name":"","type":"uint256","internalType":"uint256"}],"stateMutability":"view"},{"type":"function","name":"approveDeal","inputs":[{"name":"id","type":"uint256","internalType":"uint256"},{"name":"decision","type":"bool","internalType":"bool"}],"outputs":[],"stateMutability":"nonpayable"},{"type":"function","name":"arbiterNotFound","inputs":[{"name":"id","type":"uint256","internalType":"uint256"}],"outputs":[],"stateMutability":"nonpayable"},{"type":"function","name":"cancel","inputs":[{"name":"id","type":"uint256","internalType":"uint256"}],"outputs":[],"stateMutability":"nonpayable"},{"type":"function","name":"createAnnouncement","inputs":[{"name":"price","type":"uint256","internalType":"uint256"},{"name":"commission","type":"uint256","internalType":"uint256"}],"outputs":[],"stateMutability":"payable"},{"type":"function","name":"dealCounter","inputs":[],"outputs":[{"name":"","type":"uint256","internalType":"uint256"}],"stateMutability":"view"},{"type":"function","name":"dealsId","inputs":[{"name":"","type":"uint256","internalType":"uint256"}],"outputs":[{"name":"statusData","type":"uint8","internalType":"enum Autoria.StatusData"},{"name":"timestamp","type":"uint256","internalType":"uint256"},{"name":"amount","type":"uint256","internalType":"uint256"},{"name":"deadline","type":"uint256","internalType":"uint256"},{"name":"seller","type":"address","internalType":"address"},{"name":"buyer","type":"address","internalType":"address"},{"name":"arbiter","type":"address","internalType":"address"},{"name":"carPrice","type":"uint256","internalType":"uint256"},{"name":"arbiterCommission","type":"uint256","internalType":"uint256"},{"name":"sellerPart","type":"uint256","internalType":"uint256"},{"name":"arbiterPart","type":"uint256","internalType":"uint256"},{"name":"sellersPledge","type":"uint256","internalType":"uint256"},{"name":"waitTime","type":"uint256","internalType":"uint256"}],"stateMutability":"view"},{"type":"function","name":"getDealAddress","inputs":[{"name":"ask","type":"address","internalType":"address"}],"outputs":[{"name":"","type":"uint256[]","internalType":"uint256[]"}],"stateMutability":"view"},{"type":"function","name":"getDealData","inputs":[{"name":"id","type":"uint256","internalType":"uint256"}],"outputs":[{"name":"","type":"tuple","internalType":"struct Autoria.DealData","components":[{"name":"statusData","type":"uint8","internalType":"enum Autoria.StatusData"},{"name":"timestamp","type":"uint256","internalType":"uint256"},{"name":"amount","type":"uint256","internalType":"uint256"},{"name":"deadline","type":"uint256","internalType":"uint256"},{"name":"seller","type":"address","internalType":"address"},{"name":"buyer","type":"address","internalType":"address"},{"name":"arbiter","type":"address","internalType":"address"},{"name":"carPrice","type":"uint256","internalType":"uint256"},{"name":"arbiterCommission","type":"uint256","internalType":"uint256"},{"name":"sellerPart","type":"uint256","internalType":"uint256"},{"name":"arbiterPart","type":"uint256","internalType":"uint256"},{"name":"sellersPledge","type":"uint256","internalType":"uint256"},{"name":"waitTime","type":"uint256","internalType":"uint256"}]}],"stateMutability":"view"},{"type":"function","name":"payForCar","inputs":[{"name":"id","type":"uint256","internalType":"uint256"}],"outputs":[],"stateMutability":"payable"},{"type":"function","name":"setArbiter","inputs":[{"name":"id","type":"uint256","internalType":"uint256"}],"outputs":[],"stateMutability":"nonpayable"},{"type":"event","name":"Approved","inputs":[{"name":"_arbiter","type":"address","indexed":true,"internalType":"address"},{"name":"id","type":"uint256","indexed":true,"internalType":"uint256"},{"name":"time","type":"uint256","indexed":false,"internalType":"uint256"}],"anonymous":false},{"type":"event","name":"ArbiterSet","inputs":[{"name":"_arbiter","type":"address","indexed":true,"internalType":"address"},{"name":"id","type":"uint256","indexed":true,"internalType":"uint256"},{"name":"time","type":"uint256","indexed":false,"internalType":"uint256"}],"anonymous":false},{"type":"event","name":"Canceled","inputs":[{"name":"_buyer","type":"address","indexed":true,"internalType":"address"},{"name":"arbiter","type":"address","indexed":false,"internalType":"address"},{"name":"id","type":"uint256","indexed":false,"internalType":"uint256"},{"name":"_amount","type":"uint256","indexed":false,"internalType":"uint256"},{"name":"time","type":"uint256","indexed":false,"internalType":"uint256"}],"anonymous":false},{"type":"event","name":"DealCreated","inputs":[{"name":"id","type":"uint256","indexed":true,"internalType":"uint256"},{"name":"seller","type":"address","indexed":true,"internalType":"address"},{"name":"price","type":"uint256","indexed":false,"internalType":"uint256"},{"name":"commission","type":"uint256","indexed":false,"internalType":"uint256"},{"name":"pledge","type":"uint256","indexed":false,"internalType":"uint256"},{"name":"time","type":"uint256","indexed":false,"internalType":"uint256"}],"anonymous":false},{"type":"event","name":"Deposit","inputs":[{"name":"_buyer","type":"address","indexed":true,"internalType":"address"},{"name":"_amount","type":"uint256","indexed":false,"internalType":"uint256"},{"name":"time","type":"uint256","indexed":false,"internalType":"uint256"}],"anonymous":false},{"type":"event","name":"PayArbiterDone","inputs":[{"name":"_arbiter","type":"address","indexed":true,"internalType":"address"},{"name":"_amount","type":"uint256","indexed":false,"internalType":"uint256"},{"name":"time","type":"uint256","indexed":false,"internalType":"uint256"}],"anonymous":false},{"type":"event","name":"PayPledgeRequired","inputs":[{"name":"sender","type":"address","indexed":true,"internalType":"address"},{"name":"amount","type":"uint256","indexed":false,"internalType":"uint256"}],"anonymous":false},{"type":"event","name":"PledgeReturned","inputs":[{"name":"id","type":"uint256","indexed":true,"internalType":"uint256"},{"name":"seller","type":"address","indexed":true,"internalType":"address"},{"name":"amount","type":"uint256","indexed":false,"internalType":"uint256"},{"name":"time","type":"uint256","indexed":false,"internalType":"uint256"}],"anonymous":false},{"type":"event","name":"PledgeSlashed","inputs":[{"name":"id","type":"uint256","indexed":true,"internalType":"uint256"},{"name":"seller","type":"address","indexed":true,"internalType":"address"},{"name":"arbiter","type":"address","indexed":true,"internalType":"address"},{"name":"amount","type":"uint256","indexed":false,"internalType":"uint256"},{"name":"time","type":"uint256","indexed":false,"internalType":"uint256"}],"anonymous":false},{"type":"event","name":"TimeCancel","inputs":[{"name":"buyer","type":"address","indexed":true,"internalType":"address"},{"name":"id","type":"uint256","indexed":true,"internalType":"uint256"},{"name":"time","type":"uint256","indexed":false,"internalType":"uint256"}],"anonymous":false},{"type":"error","name":"AccessDenied","inputs":[{"name":"sender","type":"address","internalType":"address"},{"name":"time","type":"uint256","internalType":"uint256"}]},{"type":"error","name":"CommissionCantBeBiggerThanPrice","inputs":[{"name":"price","type":"uint256","internalType":"uint256"},{"name":"commission","type":"uint256","internalType":"uint256"}]},{"type":"error","name":"Failed","inputs":[]},{"type":"error","name":"InvalidArbiterAddr","inputs":[{"name":"arbiter","type":"address","internalType":"address"}]},{"type":"error","name":"InvalidBuyerAddr","inputs":[{"name":"buyer","type":"address","internalType":"address"}]},{"type":"error","name":"InvalidDealId","inputs":[{"name":"id","type":"uint256","internalType":"uint256"}]},{"type":"error","name":"InvalidSellerAddr","inputs":[{"name":"seller","type":"address","internalType":"address"}]},{"type":"error","name":"InvalidStatus","inputs":[{"name":"sender","type":"address","internalType":"address"}]},{"type":"error","name":"NotEnoughDays","inputs":[{"name":"sender","type":"address","internalType":"address"},{"name":"time","type":"uint256","internalType":"uint256"}]},{"type":"error","name":"NotEnoughMoney","inputs":[{"name":"sender","type":"address","internalType":"address"}]},{"type":"error","name":"PayPledge","inputs":[{"name":"sender","type":"address","internalType":"address"},{"name":"amount","type":"uint256","internalType":"uint256"}]},{"type":"error","name":"ReentrancyGuardReentrantCall","inputs":[]},{"type":"error","name":"RefundFailed","inputs":[{"name":"sender","type":"address","internalType":"address"}]},{"type":"error","name":"TransferFailed","inputs":[{"name":"recipient","type":"address","internalType":"address"},{"name":"id","type":"uint256","internalType":"uint256"},{"name":"amount","type":"uint256","internalType":"uint256"}]}],"bytecode":{"object":"0x6080806040523460395760017f9b779b17422d0df92223018b32b4d1fa46e071723d6817e2486d003becc55f00556113a8908161003e8239f35b5f80fdfe6080806040526004361015610012575f80fd5b5f3560e01c9081631ac4dad21461102d57508063207c22da14610ea3578063217328b614610e8757806340e58ee514610cea57806345a514c214610b995780636d83bbd714610b4157806374af506514610a8d578063788221af146105d8578063a09d485d14610506578063a4234b4e146104e9578063d7e8bfa01461030d578063f61c68e9146102f05763fd6c277e146100ab575f80fd5b60203660031901126102ec57600480355f818152600160205260409020909101546001600160a01b0316156102da57805f52600160205260018060a01b03600460405f2001541633146102c357805f52600160205260018060a01b03600660405f2001541633146102c357805f526001602052600760405f20015434036102b057805f52600160205260ff60405f205416600781101561029c57600203610207575f8181526001602052604090206005810180546001600160a01b03191633179055346002909101554262278d008101919082106101f3576101bf91815f526001602052600360405f200155805f52600160205260405f20600360ff19825416179055335f52600260205260405f206112e1565b6040513481524260208201527f90890809c654f11d6e72a28fa60149770a0d11ec6c92319d6ceb2bb0a4ea1a1560403392a2005b634e487b7160e01b5f52601160045260245ffd5b805f52600160205260ff60405f205416600781101561029c57610289576213c6804201908142116101f3575f818152600160208181526040808420600c8101969096556005860180546001600160a01b0319163390811790915534600280890191909155875460ff191690941790965594835252919091206101bf91906112e1565b6343269d2960e11b5f523360045260245ffd5b634e487b7160e01b5f52602160045260245ffd5b635b136ebb60e11b5f523360045260245ffd5b63273a0cef60e11b5f52336004524260245260445ffd5b63f98fc38b60e01b5f5260045260245ffd5b5f80fd5b346102ec575f3660031901126102ec5760206040516213c6808152f35b346102ec5760203660031901126102ec5760043561032961131a565b5f818152600160205260409020600401546001600160a01b0316156102da575f818152600160205260409020600601546001600160a01b03166104da57805f52600160205260018060a01b03600460405f2001541633146102c357805f52600160205260ff60405f205416600781101561029c57610428575f8181526001602090815260408083206006810180546001600160a01b03191633908117909155815460ff19166002908117909255845290915290206103e89082906112e1565b6040514281527feed431f08d7828ba7f715829635a7bfde1dfb455e39c1186897cf3612e55866b60203392a35b60015f5160206113535f395f51905f5255005b805f52600160205260ff60405f205416600781101561029c57600103610289575f8181526001602052604090206006810180546001600160a01b03191633179055805460ff191660031790554262278d008101919082106101f3576104d591815f526001602052600360405f200155806040514281527feed431f08d7828ba7f715829635a7bfde1dfb455e39c1186897cf3612e55866b60203392a3335f52600260205260405f206112e1565b610415565b63312d207360e11b5f5260045ffd5b346102ec575f3660031901126102ec57602060405162278d008152f35b346102ec5760203660031901126102ec576004355f5260016020526101a060405f2060ff815416906001810154906002810154600382015460018060a01b0360048401541660018060a01b0360058501541660018060a01b03600686015416600786015491600887015493600988015495600a89015497600c600b8b01549a01549a610595604051809e611203565b60208d015260408c015260608b015260808a015260a089015260c088015260e0870152610100860152610120850152610140840152610160830152610180820152f35b346102ec5760403660031901126102ec576004356024358015158091036102ec5761060161131a565b5f828152600160205260409020600401546001600160a01b031615610a7a57815f52600160205260ff60405f205416600781101561029c57600303610289575f828152600160205260409020600601546001600160a01b031633036102c3576001036108a2575f81815260016020908152604091829020805460ff1916600417815560060154915142815283926001600160a01b0316917f6df4c963050304104a3060e9c1fd90c9364d38b6aa09da5b2b0e3215272b6fa591a35f81815260016020819052604082206006810154600a909101549192918291829182916001600160a01b03165af16106f16112a2565b50151503610861575f818152600160208190526040822060048101546009909101549192918291829182916001600160a01b03165af161072f6112a2565b50151503610820575f81815260016020819052604082206004810154600b909101549192918291829182916001600160a01b03165af161076d6112a2565b501515036107df575f818152600160209081526040918290206004810154600b90910154835190815242928101929092526001600160a01b031692917f852ab969fff23318292e7f30fd29d6ae31a33bf584288474bbe8a9c82e26595991a360015f5160206113535f395f51905f5255005b5f818152600160205260408120600480820154600b9092015463cd47108960e01b84526001600160a01b039092169052602492909252604491909152606490fd5b5f81815260016020526040812060048082015460099092015463cd47108960e01b84526001600160a01b039092169052602492909252604491909152606490fd5b5f8181526001602052604081206006810154600a9091015463cd47108960e01b83526001600160a01b03909116600452602492909252604491909152606490fd5b5f81815260016020908152604091829020805460ff1916600590811782558101546007909101548351338152928301859052928201929092524260608201526001600160a01b0391909116907fcce7c9e381779d01209bdbb7b38a93897b408df4aea479c1acd0394e9f8f7e1390608090a25f818152600160208190526040822060058101546007909101549192918291829182916001600160a01b03165af161094a6112a2565b50151503610a39575f81815260016020819052604082206006810154600b909101549192918291829182916001600160a01b03165af16109886112a2565b501515036109f8575f8181526001602090815260409182902060048101546006820154600b90920154845190815242938101939093526001600160a01b039182169491169290917f2b6f051d5443881a323ec10cffd249c1c463c9cdf1fc6e71d12e6d97992dc2c89190a4610415565b5f8181526001602052604081206006810154600b9091015463cd47108960e01b83526001600160a01b03909116600452602492909252604491909152606490fd5b5f818152600160205260408120600581015460079091015463cd47108960e01b83526001600160a01b03909116600452602492909252604491909152606490fd5b5063f98fc38b60e01b5f5260045260245ffd5b346102ec5760203660031901126102ec576001600160a01b03610aae611210565b165f52600260205260405f20604051806020835491828152019081935f5260205f20905f5b818110610b2b5750505081610ae9910382611280565b604051918291602083019060208452518091526040830191905f5b818110610b12575050500390f35b8251845285945060209384019390920191600101610b04565b8254845260209093019260019283019201610ad3565b346102ec5760403660031901126102ec57610b5a611210565b6001600160a01b03165f908152600260205260409020805460243591908210156102ec57602091610b8a91611226565b90549060031b1c604051908152f35b60403660031901126102ec5760043560243581811015610cd457803403610c91575f5490600182018092116101f357815f55335f526002602052610be08260405f206112e1565b5f82815260016020526040902034600b82015560040180546001600160a01b031916331790558083038381116101f3575f838152600160208181526040928390206009810194909455600a84018590556007840187905560088401859055835460ff1916845542918401829055600b90930154825196875292860193909352840152606083015233917fc79ab9a9ed0bb6f70386ca1116889036ff17b049199f16febc0447d2e92d3eda90608090a3005b6040513481527f295d06b77d8c395dd383d22c5c54dfe883658b5cdcc616918307b812003e3fca60203392a263bad0ad6b60e01b5f52336004523460245260445ffd5b9063114b74cb60e11b5f5260045260245260445ffd5b346102ec5760203660031901126102ec57600435610d0661131a565b5f818152600160205260409020600401546001600160a01b0316156102da575f818152600160205260409020600501546001600160a01b031633036102c357805f52600160205260ff60405f205416600781101561029c5760030361028957805f526001602052600360405f200154421115610e70575f81815260016020908152604091829020805460ff1916600617815560050154915142815283926001600160a01b0316917fdc7f1f54139d15089f858692f84c600102809e972d2f00f30fac387f55dc29a791a35f818152600160208190526040822060058101546007909101549192918291829182916001600160a01b03165af1610e066112a2565b50151503610e44575f81815260016020819052604082206004810154600b909101549192918291829182916001600160a01b03165af161076d6112a2565b5f90815260016020526040812060050154631322dee160e11b82526001600160a01b0316600452602490fd5b637b710cef60e01b5f52336004524260245260445ffd5b346102ec575f3660031901126102ec5760205f54604051908152f35b346102ec5760203660031901126102ec57600435610ebf61131a565b5f818152600160205260409020600401546001600160a01b0316156102da575f818152600160205260409020600501546001600160a01b031615611001575f818152600160205260409020600601546001600160a01b03166104da57805f526001602052600c60405f20015442106104da57805f52600160205260018060a01b03600460405f2001541633141580610fe0575b6102c3575f81815260016020908152604091829020805460ff1916600617815560050154915142815283926001600160a01b0316917fdc7f1f54139d15089f858692f84c600102809e972d2f00f30fac387f55dc29a791a35f818152600160208190526040822060058101546007909101549192918291829182916001600160a01b03165af1610e066112a2565b50805f52600160205260018060a01b03600560405f20015416331415610f52565b5f9081526001602052604081206005015463119c986160e21b82526001600160a01b0316600452602490fd5b346102ec5760203660031901126102ec575f6101806004359261104f8161124f565b8281528260208201528260408201528260608201528260808201528260a08201528260c08201528260e0820152826101008201528261012082015282610140820152826101608201520152805f52600160205260018060a01b03600460405f20015416156102da575f52600160205260405f206040516110ce8161124f565b60ff82541690600782101561029c5780806101a09484825260018101546020830190815260028201546040840190815260038301546060850190815260018060a01b036004850154166080860190815260018060a01b036005860154169060a0870191825260018060a01b036006870154169260c0880193845260078701549460e089019586526008880154966101008a01978852610180600c60098b01549a6101208d019b8c52610140600a8201549d019c8d52610160600b8201549e019d8e5201549c019b8c526111a4604051809e611203565b5160208d01525160408c01525160608b0152516001600160a01b0390811660808b01529051811660a08a015290511660c08801525160e08701525161010086015251610120850152516101408401525161016083015251610180820152f35b90600782101561029c5752565b600435906001600160a01b03821682036102ec57565b805482101561123b575f5260205f2001905f90565b634e487b7160e01b5f52603260045260245ffd5b6101a0810190811067ffffffffffffffff82111761126c57604052565b634e487b7160e01b5f52604160045260245ffd5b90601f8019910116810190811067ffffffffffffffff82111761126c57604052565b3d156112dc573d9067ffffffffffffffff821161126c57604051916112d1601f8201601f191660200184611280565b82523d5f602084013e565b606090565b80546801000000000000000081101561126c5761130391600182018155611226565b819291549060031b91821b915f19901b1916179055565b60025f5160206113535f395f51905f5254146113435760025f5160206113535f395f51905f5255565b633ee5aeb560e01b5f5260045ffdfe9b779b17422d0df92223018b32b4d1fa46e071723d6817e2486d003becc55f00a2646970667358221220da4d2414e67ee4f213eadf2cb81df35a3da065c1eb643438519351f20aa64d9564736f6c634300081e0033","linkReferences":{}},"methodIdentifiers":{"ARBITER_WAITTIME()":"f61c68e9","Paymastercheck(address,uint256)":"6d83bbd7","RESOLUTION_DEADLINE()":"a4234b4e","approveDeal(uint256,bool)":"788221af","arbiterNotFound(uint256)":"207c22da","cancel(uint256)":"40e58ee5","createAnnouncement(uint256,uint256)":"45a514c2","dealCounter()":"217328b6","dealsId(uint256)":"a09d485d","getDealAddress(address)":"74af5065","getDealData(uint256)":"1ac4dad2","payForCar(uint256)":"fd6c277e","setArbiter(uint256)":"d7e8bfa0"},"id":37}