{"abi":[{"type":"constructor","inputs":[],"stateMutability":"nonpayable"},{"type":"function","name":"DOMAIN_SEPARATOR","inputs":[],"outputs":[{"name":"","type":"bytes32","internalType":"bytes32"}],"stateMutability":"view"},{"type":"function","name":"allowance","inputs":[{"name":"owner","type":"address","internalType":"address"},{"name":"spender","type":"address","internalType":"address"}],"outputs":[{"name":"","type":"uint256","internalType":"uint256"}],"stateMutability":"view"},{"type":"function","name":"approve","inputs":[{"name":"spender","type":"address","internalType":"address"},{"name":"value","type":"uint256","internalType":"uint256"}],"outputs":[{"name":"","type":"bool","internalType":"bool"}],"stateMutability":"nonpayable"},{"type":"function","name":"balanceOf","inputs":[{"name":"account","type":"address","internalType":"address"}],"outputs":[{"name":"","type":"uint256","internalType":"uint256"}],"stateMutability":"view"},{"type":"function","name":"buy","inputs":[],"outputs":[],"stateMutability":"payable"},{"type":"function","name":"casino","inputs":[],"outputs":[],"stateMutability":"payable"},{"type":"function","name":"casino2","inputs":[],"outputs":[],"stateMutability":"payable"},{"type":"function","name":"decimals","inputs":[],"outputs":[{"name":"","type":"uint8","internalType":"uint8"}],"stateMutability":"view"},{"type":"function","name":"eip712Domain","inputs":[],"outputs":[{"name":"fields","type":"bytes1","internalType":"bytes1"},{"name":"name","type":"string","internalType":"string"},{"name":"version","type":"string","internalType":"string"},{"name":"chainId","type":"uint256","internalType":"uint256"},{"name":"verifyingContract","type":"address","internalType":"address"},{"name":"salt","type":"bytes32","internalType":"bytes32"},{"name":"extensions","type":"uint256[]","internalType":"uint256[]"}],"stateMutability":"view"},{"type":"function","name":"name","inputs":[],"outputs":[{"name":"","type":"string","internalType":"string"}],"stateMutability":"view"},{"type":"function","name":"nonces","inputs":[{"name":"owner","type":"address","internalType":"address"}],"outputs":[{"name":"","type":"uint256","internalType":"uint256"}],"stateMutability":"view"},{"type":"function","name":"permit","inputs":[{"name":"owner","type":"address","internalType":"address"},{"name":"spender","type":"address","internalType":"address"},{"name":"value","type":"uint256","internalType":"uint256"},{"name":"deadline","type":"uint256","internalType":"uint256"},{"name":"v","type":"uint8","internalType":"uint8"},{"name":"r","type":"bytes32","internalType":"bytes32"},{"name":"s","type":"bytes32","internalType":"bytes32"}],"outputs":[],"stateMutability":"nonpayable"},{"type":"function","name":"price","inputs":[],"outputs":[{"name":"","type":"uint256","internalType":"uint256"}],"stateMutability":"view"},{"type":"function","name":"random","inputs":[{"name":"max","type":"uint256","internalType":"uint256"}],"outputs":[{"name":"","type":"uint256","internalType":"uint256"}],"stateMutability":"view"},{"type":"function","name":"sell","inputs":[{"name":"tokenAmount","type":"uint256","internalType":"uint256"}],"outputs":[],"stateMutability":"nonpayable"},{"type":"function","name":"symbol","inputs":[],"outputs":[{"name":"","type":"string","internalType":"string"}],"stateMutability":"view"},{"type":"function","name":"totalSupply","inputs":[],"outputs":[{"name":"","type":"uint256","internalType":"uint256"}],"stateMutability":"view"},{"type":"function","name":"transfer","inputs":[{"name":"to","type":"address","internalType":"address"},{"name":"value","type":"uint256","internalType":"uint256"}],"outputs":[{"name":"","type":"bool","internalType":"bool"}],"stateMutability":"nonpayable"},{"type":"function","name":"transferFrom","inputs":[{"name":"from","type":"address","internalType":"address"},{"name":"to","type":"address","internalType":"address"},{"name":"value","type":"uint256","internalType":"uint256"}],"outputs":[{"name":"","type":"bool","internalType":"bool"}],"stateMutability":"nonpayable"},{"type":"event","name":"Approval","inputs":[{"name":"owner","type":"address","indexed":true,"internalType":"address"},{"name":"spender","type":"address","indexed":true,"internalType":"address"},{"name":"value","type":"uint256","indexed":false,"internalType":"uint256"}],"anonymous":false},{"type":"event","name":"EIP712DomainChanged","inputs":[],"anonymous":false},{"type":"event","name":"Transfer","inputs":[{"name":"from","type":"address","indexed":true,"internalType":"address"},{"name":"to","type":"address","indexed":true,"internalType":"address"},{"name":"value","type":"uint256","indexed":false,"internalType":"uint256"}],"anonymous":false},{"type":"error","name":"ECDSAInvalidSignature","inputs":[]},{"type":"error","name":"ECDSAInvalidSignatureLength","inputs":[{"name":"length","type":"uint256","internalType":"uint256"}]},{"type":"error","name":"ECDSAInvalidSignatureS","inputs":[{"name":"s","type":"bytes32","internalType":"bytes32"}]},{"type":"error","name":"ERC20InsufficientAllowance","inputs":[{"name":"spender","type":"address","internalType":"address"},{"name":"allowance","type":"uint256","internalType":"uint256"},{"name":"needed","type":"uint256","internalType":"uint256"}]},{"type":"error","name":"ERC20InsufficientBalance","inputs":[{"name":"sender","type":"address","internalType":"address"},{"name":"balance","type":"uint256","internalType":"uint256"},{"name":"needed","type":"uint256","internalType":"uint256"}]},{"type":"error","name":"ERC20InvalidApprover","inputs":[{"name":"approver","type":"address","internalType":"address"}]},{"type":"error","name":"ERC20InvalidReceiver","inputs":[{"name":"receiver","type":"address","internalType":"address"}]},{"type":"error","name":"ERC20InvalidSender","inputs":[{"name":"sender","type":"address","internalType":"address"}]},{"type":"error","name":"ERC20InvalidSpender","inputs":[{"name":"spender","type":"address","internalType":"address"}]},{"type":"error","name":"ERC2612ExpiredSignature","inputs":[{"name":"deadline","type":"uint256","internalType":"uint256"}]},{"type":"error","name":"ERC2612InvalidSigner","inputs":[{"name":"signer","type":"address","internalType":"address"},{"name":"owner","type":"address","internalType":"address"}]},{"type":"error","name":"InvalidAccountNonce","inputs":[{"name":"account","type":"address","internalType":"address"},{"name":"currentNonce","type":"uint256","internalType":"uint256"}]},{"type":"error","name":"InvalidShortString","inputs":[]},{"type":"error","name":"StringTooLong","inputs":[{"name":"str","type":"string","internalType":"string"}]}],"bytecode":{"object":"0x610160604052346104285760405161001860408261042c565b6007815260208101664d6f6e6574746160c81b81526040519061003c60408361042c565b60078252664d6f6e6574746160c81b60208301526040519261005f60408561042c565b60048452634d4f4e4160e01b60208501526040519361007f60408661042c565b60018552603160f81b60208601908152845190946001600160401b03821161032b5760035490600182811c9216801561041e575b602083101461030d5781601f8493116103b0575b50602090601f831160011461034a575f9261033f575b50508160011b915f199060031b1c1916176003555b8051906001600160401b03821161032b5760045490600182811c92168015610321575b602083101461030d5781601f84931161029f575b50602090601f8311600114610239575f9261022e575b50508160011b915f199060031b1c1916176004555b61015d8161044f565b6101205261016a846105d6565b61014052519020918260e05251902080610100524660a0526040519060208201927f8b73c3c69bb8fe3d512ecc4cf759cc79239f7b179b0ffacaa9a75d522b39400f8452604083015260608201524660808201523060a082015260a081526101d360c08261042c565b5190206080523060c052604051610f79908161070f823960805181610c0d015260a05181610cca015260c05181610bd7015260e05181610c5c01526101005181610c820152610120518161066d015261014051816106960152f35b015190505f8061013f565b60045f9081528281209350601f198516905b818110610287575090846001959493921061026f575b505050811b01600455610154565b01515f1960f88460031b161c191690555f8080610261565b9293602060018192878601518155019501930161024b565b60045f529091507f8a35acfbc15ff81a39ae7d344fd709f28e8600b4aa8c65c6b64bfe7fe36bd19b601f840160051c81019160208510610303575b90601f859493920160051c01905b8181106102f55750610129565b5f81558493506001016102e8565b90915081906102da565b634e487b7160e01b5f52602260045260245ffd5b91607f1691610115565b634e487b7160e01b5f52604160045260245ffd5b015190505f806100dd565b60035f9081528281209350601f198516905b8181106103985750908460019594939210610380575b505050811b016003556100f2565b01515f1960f88460031b161c191690555f8080610372565b9293602060018192878601518155019501930161035c565b60035f529091507fc2575a0e9e593c00f959f8c92f12db2869c3395a3b0502d05e2516446f71f85b601f840160051c81019160208510610414575b90601f859493920160051c01905b81811061040657506100c7565b5f81558493506001016103f9565b90915081906103eb565b91607f16916100b3565b5f80fd5b601f909101601f19168101906001600160401b0382119082101761032b57604052565b908151602081105f146104c9575090601f81511161048957602081519101516020821061047a571790565b5f198260200360031b1b161790565b604460209160405192839163305a27a960e01b83528160048401528051918291826024860152018484015e5f828201840152601f01601f19168101030190fd5b6001600160401b03811161032b57600554600181811c911680156105cc575b602082101461030d57601f8111610599575b50602092601f821160011461053857928192935f9261052d575b50508160011b915f199060031b1c19161760055560ff90565b015190505f80610514565b601f1982169360055f52805f20915f5b8681106105815750836001959610610569575b505050811b0160055560ff90565b01515f1960f88460031b161c191690555f808061055b565b91926020600181928685015181550194019201610548565b60055f52601f60205f20910160051c810190601f830160051c015b8181106105c157506104fa565b5f81556001016105b4565b90607f16906104e8565b908151602081105f14610601575090601f81511161048957602081519101516020821061047a571790565b6001600160401b03811161032b57600654600181811c91168015610704575b602082101461030d57601f81116106d1575b50602092601f821160011461067057928192935f92610665575b50508160011b915f199060031b1c19161760065560ff90565b015190505f8061064c565b601f1982169360065f52805f20915f5b8681106106b957508360019596106106a1575b505050811b0160065560ff90565b01515f1960f88460031b161c191690555f8080610693565b91926020600181928685015181550194019201610680565b60065f52601f60205f20910160051c810190601f830160051c015b8181106106f95750610632565b5f81556001016106ec565b90607f169061062056fe6080806040526004361015610012575f80fd5b5f3560e01c90816306fdde031461091357508063095ea7b3146108ed57806318160ddd146108d057806323b872dd146107f1578063313ce567146107d65780633644e515146107bc57806370a08231146107855780637ecebe001461074d57806384b0196e146106555780639403e8dd1461057b57806395d89b411461049957806396f241901461047c578063a035b1fe1461045f578063a6f2ae3a146103da578063a9059cbb146103a9578063b863bd3714610383578063d505accf1461023e578063dd62ed3e146101ee5763e4849b32146100ed575f80fd5b346101ea5760203660031901126101ea576004358047106101bc5733156101a957335f525f60205260405f2054818110610190575f808381948294338452836020520360408320558060025403600255816040518281527fddf252ad1be2c89b69c2b068fc378daa952ba7f163c4a11628f55a4df523b3ef60203392a3818115610187575b3390f11561017c57005b6040513d5f823e3d90fd5b506108fc610172565b63391434e360e21b5f523360045260245260445260645ffd5b634b637e8f60e11b5f525f60045260245ffd5b60405162461bcd60e51b81526020600482015260066024820152656d616c6f6f6f60d01b6044820152606490fd5b5f80fd5b346101ea5760403660031901126101ea576102076109d9565b61020f6109ef565b6001600160a01b039182165f908152600160209081526040808320949093168252928352819020549051908152f35b346101ea5760e03660031901126101ea576102576109d9565b61025f6109ef565b604435906064359260843560ff811681036101ea578442116103705761033361033c9160018060a01b03841696875f52600760205260405f20908154916001830190556040519060208201927f6e71edae12b1b97f4d1f60370fef10105fa2faae0126114a169c64845d6126c984528a604084015260018060a01b038916606084015289608084015260a083015260c082015260c0815261030160e082610abe565b51902061030c610bd4565b906040519161190160f01b83526002830152602282015260c43591604260a4359220610e4d565b90929192610ecf565b6001600160a01b031684810361035957506103579350610d50565b005b84906325c0072360e11b5f5260045260245260445ffd5b8463313c898160e11b5f5260045260245ffd5b346101ea5760203660031901126101ea5760206103a1600435610af4565b604051908152f35b346101ea5760403660031901126101ea576103cf6103c56109d9565b6024359033610b2a565b602060405160018152f35b5f3660031901126101ea576002548061041e5750600a3402348104600a143415171561040a576103579033610cf0565b634e487b7160e01b5f52601160045260245ffd5b80340290348204143415171561040a57473481039080821161040a57341461044b57610357910433610cf0565b634e487b7160e01b5f52601260045260245ffd5b346101ea575f3660031901126101ea576020600854604051908152f35b5f3660031901126101ea5761035761049334610af4565b33610cf0565b346101ea575f3660031901126101ea576040515f6004546104b981610a05565b808452906001811690811561055757506001146104f9575b6104f5836104e181850382610abe565b6040519182916020835260208301906109b5565b0390f35b60045f9081527f8a35acfbc15ff81a39ae7d344fd709f28e8600b4aa8c65c6b64bfe7fe36bd19b939250905b80821061053d575090915081016020016104e16104d1565b919260018160209254838588010152019101909291610525565b60ff191660208086019190915291151560051b840190910191506104e190506104d1565b5f3660031901126101ea5760326103e860405160208101904282524460408201523360601b6060820152605481526105b4607482610abe565b519020065f806040516105c8604082610abe565b600e81526d2930b73237b690373ab6b132b91d60911b60208201526040516106218161060d6020820194632d839cb360e21b86526040602484015260648301906109b5565b87604483015203601f198101835282610abe565b51906a636f6e736f6c652e6c6f675afa501061063957005b3460011b3481046002143415171561040a576103579033610cf0565b346101ea575f3660031901126101ea576106f16106917f0000000000000000000000000000000000000000000000000000000000000000610db3565b6106ba7f0000000000000000000000000000000000000000000000000000000000000000610e16565b60206106ff604051926106cd8385610abe565b5f84525f368137604051958695600f60f81b875260e08588015260e08701906109b5565b9085820360408701526109b5565b4660608501523060808501525f60a085015283810360c08501528180845192838152019301915f5b82811061073657505050500390f35b835185528695509381019392810192600101610727565b346101ea5760203660031901126101ea576001600160a01b0361076e6109d9565b165f526007602052602060405f2054604051908152f35b346101ea5760203660031901126101ea576001600160a01b036107a66109d9565b165f525f602052602060405f2054604051908152f35b346101ea575f3660031901126101ea5760206103a1610bd4565b346101ea575f3660031901126101ea57602060405160128152f35b346101ea5760603660031901126101ea5761080a6109d9565b6108126109ef565b6001600160a01b0382165f818152600160209081526040808320338452909152902054909260443592915f198110610850575b506103cf9350610b2a565b8381106108b55784156108a257331561088f576103cf945f52600160205260405f2060018060a01b0333165f526020528360405f209103905584610845565b634a1406b160e11b5f525f60045260245ffd5b63e602df0560e01b5f525f60045260245ffd5b8390637dc7a0d960e11b5f523360045260245260445260645ffd5b346101ea575f3660031901126101ea576020600254604051908152f35b346101ea5760403660031901126101ea576103cf6109096109d9565b6024359033610d50565b346101ea575f3660031901126101ea575f60035461093081610a05565b80845290600181169081156105575750600114610957576104f5836104e181850382610abe565b60035f9081527fc2575a0e9e593c00f959f8c92f12db2869c3395a3b0502d05e2516446f71f85b939250905b80821061099b575090915081016020016104e16104d1565b919260018160209254838588010152019101909291610983565b805180835260209291819084018484015e5f828201840152601f01601f1916010190565b600435906001600160a01b03821682036101ea57565b602435906001600160a01b03821682036101ea57565b90600182811c92168015610a33575b6020831014610a1f57565b634e487b7160e01b5f52602260045260245ffd5b91607f1691610a14565b5f9291815491610a4c83610a05565b8083529260018116908115610aa15750600114610a6857505050565b5f9081526020812093945091925b838310610a87575060209250010190565b600181602092949394548385870101520191019190610a76565b915050602093945060ff929192191683830152151560051b010190565b90601f8019910116810190811067ffffffffffffffff821117610ae057604052565b634e487b7160e01b5f52604160045260245ffd5b60405160208101904282524460408201523360601b606082015260548152610b1d607482610abe565b519020811561044b570690565b6001600160a01b03169081156101a9576001600160a01b0316918215610bc157815f525f60205260405f2054818110610ba857817fddf252ad1be2c89b69c2b068fc378daa952ba7f163c4a11628f55a4df523b3ef92602092855f525f84520360405f2055845f525f825260405f20818154019055604051908152a3565b8263391434e360e21b5f5260045260245260445260645ffd5b63ec442f0560e01b5f525f60045260245ffd5b307f00000000000000000000000000000000000000000000000000000000000000006001600160a01b03161480610cc7575b15610c2f577f000000000000000000000000000000000000000000000000000000000000000090565b60405160208101907f8b73c3c69bb8fe3d512ecc4cf759cc79239f7b179b0ffacaa9a75d522b39400f82527f000000000000000000000000000000000000000000000000000000000000000060408201527f000000000000000000000000000000000000000000000000000000000000000060608201524660808201523060a082015260a08152610cc160c082610abe565b51902090565b507f00000000000000000000000000000000000000000000000000000000000000004614610c06565b6001600160a01b0316908115610bc1576002549080820180921161040a5760207fddf252ad1be2c89b69c2b068fc378daa952ba7f163c4a11628f55a4df523b3ef915f9360025584845283825260408420818154019055604051908152a3565b6001600160a01b03169081156108a2576001600160a01b031691821561088f5760207f8c5be1e5ebec7d5bd14f71427d1e84f3dd0314c0f7b2291e5b200ac8c7c3b92591835f526001825260405f20855f5282528060405f2055604051908152a3565b60ff8114610df95760ff811690601f8211610dea5760405191610dd7604084610abe565b6020808452838101919036833783525290565b632cd44ac360e21b5f5260045ffd5b50604051610e1381610e0c816005610a3d565b0382610abe565b90565b60ff8114610e3a5760ff811690601f8211610dea5760405191610dd7604084610abe565b50604051610e1381610e0c816006610a3d565b91907f7fffffffffffffffffffffffffffffff5d576e7357a4501ddfe92f46681b20a08411610ec4579160209360809260ff5f9560405194855216868401526040830152606082015282805260015afa1561017c575f516001600160a01b03811615610eba57905f905f90565b505f906001905f90565b5050505f9160039190565b6004811015610f2f5780610ee1575050565b60018103610ef85763f645eedf60e01b5f5260045ffd5b60028103610f13575063fce698f760e01b5f5260045260245ffd5b600314610f1d5750565b6335e2f38360e21b5f5260045260245ffd5b634e487b7160e01b5f52602160045260245ffdfea26469706673582212204781b3b8479797b4102234f89bd4795fd4d78764d31cf516e3bd6829434dea5664736f6c634300081e0033","linkReferences":{}},"methodIdentifiers":{"DOMAIN_SEPARATOR()":"3644e515","allowance(address,address)":"dd62ed3e","approve(address,uint256)":"095ea7b3","balanceOf(address)":"70a08231","buy()":"a6f2ae3a","casino()":"9403e8dd","casino2()":"96f24190","decimals()":"313ce567","eip712Domain()":"84b0196e","name()":"06fdde03","nonces(address)":"7ecebe00","permit(address,address,uint256,uint256,uint8,bytes32,bytes32)":"d505accf","price()":"a035b1fe","random(uint256)":"b863bd37","sell(uint256)":"e4849b32","symbol()":"95d89b41","totalSupply()":"18160ddd","transfer(address,uint256)":"a9059cbb","transferFrom(address,address,uint256)":"23b872dd"},"id":52}